:020000040000FA
:1000000068020020F1020000F9020000FB0200007B
:10001000FD020000FF0200000103000000000000DC
:1000200000000000000000000000000003030000CA
:100030000503000000000000070300004D0C000055
:100040000B0300000D0300000F030000110300006C
:10005000130300001503000017030000190300003C
:100060001B0300001D0300001F030000210300000C
:1000700023030000250300002703000029030000DC
:100080002B0300002D0300002F03000031030000AC
:10009000330300003503000037030000390300007C
:1000A0003B0300003D0300003F030000410300004C
:1000B00043030000450300009504000049030000CD
:1000C0004B0300004D0300004F03000051030000EC
:1000D00053030000550300005703000059030000BC
:1000E0005B0300005D030000000000005F030000F0
:1000F0006103000063030000650300006703000064
:10010000690300006B0300006D0300006F03000033
:1001100000000000000000007103000073030000F5
:100120007503000077030000790300007B030000E3
:100130007D0300007F0300008103000083030000B3
:1001400000000000000000000000000000000000AF
:100150008503000087030000890300008B03000073
:10016000000000000000000000000000000000008F
:10017000000000000000000000000000000000007F
:10018000000000000000000000000000000000006F
:10019000000000000000000000000000000000005F
:1001A000000000000000000000000000000000004F
:1001B0008D0300008F0300009103000093030000F3
:1001C0009503000097030000990300009B030000C3
:1001D0009D0300009F030000A1030000A303000093
:1001E000A5030000A7030000A90300000000000011
:1001F00000000000AB030000AD030000AF030000EF
:10020000B1030000B3030000000000000000000084
:10021000B5030000B7030000B9030000BB030000F2
:10022000BD030000BF030000C1030000C3030000C2
:10023000C5030000C7030000C9030000CB03000092
:10024000CD030000CF030000D1030000D303000062
:10025000D5030000D7030000D9030000DB03000032
:10026000DD030000DF030000E103000000F002F8FE
:1002700000F02EF80AA090E8000C82448344AAF112
:100280000107DA4501D100F023F8AFF2090EBAE810
:100290000F0013F0010F18BFFB1A43F001031847BA
:1002A0007C0B00008C0B000000230024002500269E
:1002B000103A28BF78C1FBD8520728BF30C148BFC9
:1002C0000B6070471FB500F09CFD1FBD10B510BD41
:1002D00000F09BF81146FFF7F5FF00F045FD00F038
:1002E000B9F803B4FFF7F2FF03BC00F0C1F8000057
:1002F0003F4880473F480047FEE7FEE7FEE7FEE74E
:10030000FEE7FEE7FEE7FEE7FEE7FEE7FEE7FEE7C5
:10031000FEE7FEE7FEE7FEE7FEE7FEE7FEE7FEE7B5
:10032000FEE7FEE7FEE7FEE7FEE7FEE7FEE7FEE7A5
:10033000FEE7FEE7FEE7FEE7FEE7FEE7FEE7FEE795
:10034000FEE7FEE7FEE7FEE7FEE7FEE7FEE7FEE785
:10035000FEE7FEE7FEE7FEE7FEE7FEE7FEE7FEE775
:10036000FEE7FEE7FEE7FEE7FEE7FEE7FEE7FEE765
:10037000FEE7FEE7FEE7FEE7FEE7FEE7FEE7FEE755
:10038000FEE7FEE7FEE7FEE7FEE7FEE7FEE7FEE745
:10039000FEE7FEE7FEE7FEE7FEE7FEE7FEE7FEE735
:1003A000FEE7FEE7FEE7FEE7FEE7FEE7FEE7FEE725
:1003B000FEE7FEE7FEE7FEE7FEE7FEE7FEE7FEE715
:1003C000FEE7FEE7FEE7FEE7FEE7FEE7FEE7FEE705
:1003D000FEE7FEE7FEE7FEE7FEE7FEE7FEE7FEE7F5
:1003E000FEE7000004480549034A054B704700003A
:1003F0005D0C00006D020000680000206802002013
:1004000068000020704770477047754600F02CF870
:10041000AE4605006946534620F00700854618B0F1
:1004200020B5FFF7DFFFBDE820404FF000064FF09A
:1004300000074FF000084FF0000BAC46ACE8C009D5
:10044000ACE8C009ACE8C009ACE8C00921F007017C
:100450008D46704710B50446AFF300802046BDE8D6
:100460001040FFF73EBF000000487047000000202A
:1004700001491820ABBEFEE72600020070470000CD
:100480004EF20861C4F20F01086840F020000860D5
:100490007047000080B540F26400C2F200000068BE
:1004A000804780BD82B08DF807008DF806109DF85A
:1004B000070001460091052817D80099DFE801F0F0
:1004C00003040506070810E00FE00EE00DE00CE065
:1004D0009DF80610012000FA01F245F21C41C4F219
:1004E0000201086810430860FFE702B0704700008F
:1004F00082B08DF807008DF806109DF807000146C0
:100500000091052817D80099DFE801F003040506DB
:10051000070810E00FE00EE00DE00CE09DF806107B
:10052000012000FA01F245F22451C4F202010868E8
:1005300010430860FFE702B07047000082B08DF8FA
:1005400007008DF806108DF805209DF8070001467C
:10055000009105282AD80099DFE801F00304050678
:10056000070823E022E021E020E01FE09DF80500DD
:1005700001280DD1FFE79DF80610012000FA01F2D5
:1005800045F21051C4F202010868104308600CE003
:100590009DF80610012000FA01F245F21051C4F254
:1005A0000201086890430860FFE7FFE702B0704768
:1005B00082B08DF807008DF806109DF807000146FF
:1005C0000091052817D80099DFE801F0030405061B
:1005D000070810E00FE00EE00DE00CE09DF80610BB
:1005E000012000FA01F245F21041C4F2020108684C
:1005F00010430860FFE702B07047000082B08DF83A
:1006000007008DF806108DF805209DF807000146BB
:10061000009105282AD80099DFE801F003040506B7
:10062000070823E022E021E020E01FE09DF805001C
:1006300001280DD1FFE79DF80610012000FA01F214
:1006400045F20841C4F202010868104308600CE05A
:100650009DF80610012000FA01F245F20841C4F2AB
:100660000201086890430860FFE7FFE702B07047A7
:1006700082B08DF807009DF807000146009105281B
:1006800011D80099DFE801F00304050607080AE025
:1006900009E008E007E006E045F22051C4F202015B
:1006A00000200860FFE702B07047000082B08DF8BC
:1006B00007008DF806108DF805209DF8070001460B
:1006C000009105282AD80099DFE801F00304050607
:1006D000070823E022E021E020E01FE09DF805006C
:1006E00001280DD1FFE79DF80610012000FA01F264
:1006F00045F20C41C4F202010868104308600CE0A6
:100700009DF80610012000FA01F245F20C41C4F2F6
:100710000201086890430860FFE7FFE702B07047F6
:1007200082B08DF807008DF806108DF805209DF831
:10073000070001460091052829D80099DFE801F05B
:1007400003040506070822E021E020E01FE01EE088
:100750009DF8050068B9FFE79DF80610012000FA32
:1007600001F245F20441C4F20201086890430860B6
:100770000CE09DF80610012000FA01F245F2044158
:10078000C4F20201086810430860FFE7FFE702B007
:100790007047000082B08DF8070000919DF80700B7
:1007A000052807D1FFE7009840F26401C2F200017A
:1007B0000860FFE702B0704782B08DF807008DF83F
:1007C00006108DF805209DF80700014600910528C8
:1007D0002AD80099DFE801F003040506070823E0A2
:1007E00022E021E020E01FE09DF8050001280DD166
:1007F000FFE79DF80610012000FA01F245F21C51B6
:10080000C4F202010868104308600CE09DF806106D
:10081000012000FA01F245F21C51C4F202010868FD
:1008200090430860FFE7FFE702B0704782B08DF8A1
:1008300007008DF806108DF805209DF80700014689
:10084000009105282AD80099DFE801F00304050685
:10085000070823E022E021E020E01FE09DF80500EA
:1008600001280DD1FFE79DF80610012000FA01F2E2
:1008700045F20041C4F202010868104308600CE030
:100880009DF80610012000FA01F245F20041C4F281
:100890000201086890430860FFE7FFE702B0704775
:1008A00082B08DF807008DF806108DF805209DF8B0
:1008B00007000146009105282AD80099DFE801F0D9
:1008C00003040506070823E022E021E020E01FE002
:1008D0009DF8050001280DD1FFE79DF806100120C5
:1008E00000FA01F245F2FC31C4F20201086810433B
:1008F00008600CE09DF80610012000FA01F245F2B4
:10090000FC31C4F20201086890430860FFE7FFE78A
:1009100002B0704782B08DF807009DF807000146CD
:100920000091052814D80099DFE801F003040506BA
:1009300007080DE00CE00BE00AE009E045F2205169
:10094000C4F2020144F24B30C4F64F400860FFE7A6
:1009500002B0704782B08DF807008DF806100020B5
:100960008DF805009DF8070001460091052817D86D
:100970000099DFE801F003040506070810E00FE026
:100980000EE00DE00CE045F21840C4F202000068F1
:100990009DF80610C84000F001008DF80500FFE743
:1009A0009DF8050002B0704780B584B0FFF768FD80
:1009B000052001900221029101220392FFF736FFE8
:1009C00001980299039AFFF7F7FE04B080BD00007A
:1009D00080B5052002210022FFF762FF80BD0000E4
:1009E00080B5052002210122FFF75AFF80BD0000DB
:1009F00081B08DF803009DF803001F280DDCFFE790
:100A00009DF80310012000FA01F24EF20011CEF21F
:100A100000010868104308601CE09DF803200021D5
:100A20001F2A0846C8BF01203F2AB8BF012108423B
:100A30000FD0FFE79DF80300A0F12001012000FA8C
:100A400001F24EF20411CEF2000108681043086072
:100A5000FFE7FFE701B0704780B584B00520039041
:100A6000FFF758FF039800210291FFF741FD03981B
:100A7000FFF7FEFD029A03981146FFF7D7FE039891
:100A8000022101220192FFF797FE019A0299039831
:100A9000FFF754FD029A03981146FFF741FE029AB0
:100AA00003981146FFF7AAFD029A03981146FFF733
:100AB000FDFD02990398FFF7F5FC02990398FFF7F3
:100AC00077FD039840F6CD51C0F20001FFF762FEBA
:100AD00004B080BD80B584B005200290FFF71AFFF6
:100AE000029804210391FFF703FD0298FFF7C0FD70
:100AF0000298039900220192FFF798FE02980221C2
:100B000001220092FFF758FE009A02980399FFF71E
:100B100015FD019A02980399FFF702FE019A0298C7
:100B20000399FFF76BFD019A02980399FFF7BEFD49
:100B300002980399FFF7B6FC02980399FFF738FD76
:100B400004B080BD82B08DF807009DF80700014613
:100B5000009105283BD80099DFE801F0030C151E31
:100B600027304EF20861C4F20F01086840F001001E
:100B700008602CE04EF20861C4F20F01086840F0F2
:100B80000200086023E04EF20861C4F20F01086819
:100B900040F0040008601AE04EF20861C4F20F0150
:100BA000086840F00800086011E04EF20861C4F2E5
:100BB0000F01086840F01000086008E04EF208617C
:100BC000C4F20F01086840F020000860FFE702B09F
:100BD000704700004EF21001CEF20001086840F0AC
:100BE00004000860704700004EF21800CEF20000CA
:100BF000006870474EF21001CEF20001086820F044
:100C0000020008607047000080B5FFF7E3FFFFF7C0
:100C1000F1FF46F60020C0F2180000F003F800F0E3
:100C20000BF880BD81B0009000984EF21401CEF216
:100C30000001086001B070474EF21001CEF20001D1
:100C4000086840F0010008607047000080B540F27D
:100C50006000C2F200000068804780BD81B04EF69F
:100C60008851CEF20001086840F4700008604EF22E
:100C70007001C4F20F0142F61000C0F280700860EB
:100C80004EF26002C4F20F0243F6D120C0F28E7021
:100C9000106042F64250C0F29E10106042F6000012
:100CA000C0F28010086000200090FFE70098C008A4
:100CB0007C2805D8FFE7FFE7009801300090F5E7B2
:100CC0004EF26001C4F20F0140F64250C0F29E1095
:100CD00008604EF27001C4F20F0140F60000C0F24D
:100CE0008010086000200090FFE70098C0087C2872
:100CF00005D8FFE7FFE7009801300090F5E74EF2D6
:100D00006001C4F20F0140F64250C0F2DE100860EC
:100D1000FFE74EF25000C4F20F00006800F0400000
:100D2000402801D0FFE7F4E74EF26001C4F20F0162
:100D300040F24250C0F2DE1008604EF27001C4F280
:100D40000F014FF0C070086000200090FFE700988E
:100D500042F20F71884205D8FFE7FFE700980130A3
:100D60000090F4E701B0704780B584B00020019096
:100D700003900520FFF7E6FE01988DF80B00FFF7C2
:100D800013FEFFF741FFFFF767FEFFF7A3FE1E20EC
:100D9000FFF72EFE62B600BFFFE7FFF725FF012831
:100DA00012D1FFE79DF80B00012806D1FFE7FFF7FE
:100DB00017FE00208DF80B0005E0FFF709FE01206B
:100DC0008DF80B00FFE7FFE7E7E7000080B505209F
:100DD0000021FFF7BFFD012805D1FFE70520002115
:100DE000FFF760FB0CE005200421FFF7B3FD0128AD
:100DF00005D1FFE705200421FFF754FBFFE7FFE7DC
:100E000080BDF1EE100A4FF6FF71C0F2C03120EA4A
:100E1000010040F04070E1EE100A70472C0E000017
:0C0E20000000002068020000A802000092
:04000005000002F104
:00000001FF
