:020000040000FA
:10000000800200200D03000015030000170300000C
:10001000190300001B0300001D0300000000000086
:100020000000000000000000000000001F030000AE
:10003000210300000000000023030000090C000061
:1000400027030000290300002B0300002D030000FC
:100050002F030000310300003303000035030000CC
:1000600037030000390300003B0300003D0300009C
:100070003F0300004103000043030000450300006C
:1000800047030000490300004B0300004D0300003C
:100090004F0300005103000053030000550300000C
:1000A00057030000590300005B0300005D030000DC
:1000B0005F03000061030000B1040000650300005D
:1000C00067030000690300006B0300006D0300007C
:1000D0006F0300007103000073030000750300004C
:1000E0007703000079030000000000007B0300009C
:1000F0007D0300007F0300008103000083030000F4
:100100008503000087030000890300008B030000C3
:1001100000000000000000008D0300008F030000BD
:100120009103000093030000950300009703000073
:10013000990300009B0300009D0300009F03000043
:1001400000000000000000000000000000000000AF
:10015000A1030000A3030000A5030000A703000003
:10016000000000000000000000000000000000008F
:10017000000000000000000000000000000000007F
:10018000000000000000000000000000000000006F
:10019000000000000000000000000000000000005F
:1001A000000000000000000000000000000000004F
:1001B000A9030000AB030000AD030000AF03000083
:1001C000B1030000B3030000B5030000B703000053
:1001D000B9030000BB030000BD030000BF03000023
:1001E000C1030000C3030000C503000000000000BD
:1001F00000000000C7030000C9030000CB0300009B
:10020000CD030000CF03000000000000000000004C
:10021000D1030000D3030000D5030000D703000082
:10022000D9030000DB030000DD030000DF03000052
:10023000E1030000E3030000E5030000E703000022
:10024000E9030000EB030000ED030000EF030000F2
:10025000F1030000F3030000F5030000F7030000C2
:10026000F9030000FB030000FD03000000F002F8AA
:1002700000F03CF80AA090E8000C82448344AAF104
:100280000107DA4501D100F031F8AFF2090EBAE802
:100290000F0013F0010F18BFFB1A43F001031847BA
:1002A000340C0000540C0000103A24BF78C878C108
:1002B000FAD8520724BF30C830C144BF04680C606C
:1002C000704700000023002400250026103A28BFB4
:1002D00078C1FBD8520728BF30C148BF0B607047B8
:1002E0001FB500F0E9FD1FBD10B510BD00F09BF873
:1002F0001146FFF7F5FF00F015FD00F0B9F803B463
:10030000FFF7F2FF03BC00F0C1F800003F48804750
:100310003F480047FEE7FEE7FEE7FEE7FEE7FEE7B1
:10032000FEE7FEE7FEE7FEE7FEE7FEE7FEE7FEE7A5
:10033000FEE7FEE7FEE7FEE7FEE7FEE7FEE7FEE795
:10034000FEE7FEE7FEE7FEE7FEE7FEE7FEE7FEE785
:10035000FEE7FEE7FEE7FEE7FEE7FEE7FEE7FEE775
:10036000FEE7FEE7FEE7FEE7FEE7FEE7FEE7FEE765
:10037000FEE7FEE7FEE7FEE7FEE7FEE7FEE7FEE755
:10038000FEE7FEE7FEE7FEE7FEE7FEE7FEE7FEE745
:10039000FEE7FEE7FEE7FEE7FEE7FEE7FEE7FEE735
:1003A000FEE7FEE7FEE7FEE7FEE7FEE7FEE7FEE725
:1003B000FEE7FEE7FEE7FEE7FEE7FEE7FEE7FEE715
:1003C000FEE7FEE7FEE7FEE7FEE7FEE7FEE7FEE705
:1003D000FEE7FEE7FEE7FEE7FEE7FEE7FEE7FEE7F5
:1003E000FEE7FEE7FEE7FEE7FEE7FEE7FEE7FEE7E5
:1003F000FEE7FEE7FEE7FEE7FEE7FEE7FEE70000BA
:1004000004480549034A054B70470000190C0000D9
:100410006D0200008000002080020020800000208B
:10042000704770477047754600F02CF8AE460500DF
:100430006946534620F00700854618B020B5FFF7FF
:10044000DFFFBDE820404FF000064FF000074FF0FF
:1004500000084FF0000BAC46ACE8C009ACE8C0099E
:10046000ACE8C009ACE8C00921F007018D4670472F
:1004700010B50446AFF300802046BDE81040FFF7FA
:100480003EBF0000004870470800002001491820C6
:10049000ABBEFEE726000200704700004EF2086186
:1004A000C4F20F01086840F02000086070470000A7
:1004B00080B540F26C00C2F200000068804780BD49
:1004C00082B08DF807008DF806109DF807000146F0
:1004D0000091052817D80099DFE801F0030405060C
:1004E000070810E00FE00EE00DE00CE09DF80610AC
:1004F000012000FA01F245F21C41C4F20201086831
:1005000010430860FFE702B07047000082B08DF82A
:1005100007008DF806109DF8070001460091052898
:1005200017D80099DFE801F003040506070810E07A
:100530000FE00EE00DE00CE09DF80610012000FA3F
:1005400001F245F22451C4F2020108681043086028
:10055000FFE702B07047000082B08DF807008DF809
:1005600006108DF805209DF807000146009105282A
:100570002AD80099DFE801F003040506070823E004
:1005800022E021E020E01FE09DF8050001280DD1C8
:10059000FFE79DF80610012000FA01F245F2105124
:1005A000C4F202010868104308600CE09DF80610D0
:1005B000012000FA01F245F21051C4F2020108686C
:1005C00090430860FFE7FFE702B0704782B08DF804
:1005D00007008DF806109DF80700014600910528D8
:1005E00017D80099DFE801F003040506070810E0BA
:1005F0000FE00EE00DE00CE09DF80610012000FA7F
:1006000001F245F21041C4F202010868104308608B
:10061000FFE702B07047000082B08DF807008DF848
:1006200006108DF805209DF8070001460091052869
:100630002AD80099DFE801F003040506070823E043
:1006400022E021E020E01FE09DF8050001280DD107
:10065000FFE79DF80610012000FA01F245F208417B
:10066000C4F202010868104308600CE09DF806100F
:10067000012000FA01F245F20841C4F202010868C3
:1006800090430860FFE7FFE702B0704782B08DF843
:1006900007009DF8070001460091052811D8009930
:1006A000DFE801F00304050607080AE009E008E0B6
:1006B00007E006E045F22051C4F202010020086084
:1006C000FFE702B07047000082B08DF807008DF898
:1006D00006108DF805209DF80700014600910528B9
:1006E0002AD80099DFE801F003040506070823E093
:1006F00022E021E020E01FE09DF8050001280DD157
:10070000FFE79DF80610012000FA01F245F20C41C6
:10071000C4F202010868104308600CE09DF806105E
:10072000012000FA01F245F20C41C4F2020108680E
:1007300090430860FFE7FFE702B0704782B08DF892
:1007400007008DF806108DF805209DF8070001467A
:100750000091052829D80099DFE801F00304050677
:10076000070822E021E020E01FE01EE09DF80500E0
:1007700068B9FFE79DF80610012000FA01F245F282
:100780000441C4F202010868904308600CE09DF83F
:100790000610012000FA01F245F20441C4F2020100
:1007A000086810430860FFE7FFE702B070470000E9
:1007B00082B08DF8070000919DF80700052807D149
:1007C000FFE7009840F26C01C2F200010860FFE709
:1007D00002B0704782B08DF807008DF806108DF8D2
:1007E00005209DF807000146009105282AD80099A8
:1007F000DFE801F003040506070823E022E021E01A
:1008000020E01FE09DF8050001280DD1FFE79DF8CD
:100810000610012000FA01F245F21C51C4F2020157
:100820000868104308600CE09DF80610012000FAEB
:1008300001F245F21C51C4F20201086890430860BD
:10084000FFE7FFE702B0704782B08DF807008DF830
:1008500006108DF805209DF8070001460091052837
:100860002AD80099DFE801F003040506070823E011
:1008700022E021E020E01FE09DF8050001280DD1D5
:10088000FFE79DF80610012000FA01F245F2004151
:10089000C4F202010868104308600CE09DF80610DD
:1008A000012000FA01F245F20041C4F20201086899
:1008B00090430860FFE7FFE702B0704782B08DF811
:1008C00007008DF806108DF805209DF807000146F9
:1008D000009105282AD80099DFE801F003040506F5
:1008E000070823E022E021E020E01FE09DF805005A
:1008F00001280DD1FFE79DF80610012000FA01F252
:1009000045F2FC31C4F202010868104308600CE0B3
:100910009DF80610012000FA01F245F2FC31C4F204
:100920000201086890430860FFE7FFE702B07047E4
:1009300082B08DF807009DF8070001460091052858
:1009400014D80099DFE801F00304050607080DE05C
:100950000CE00BE00AE009E045F22051C4F202018C
:1009600044F24B30C4F64F400860FFE702B07047D6
:1009700082B08DF807008DF8061000208DF8050074
:100980009DF8070001460091052817D80099DFE877
:1009900001F003040506070810E00FE00EE00DE08B
:1009A0000CE045F21840C4F2020000689DF8061001
:1009B000C84000F001008DF80500FFE79DF8050034
:1009C00002B0704780B584B0FFF768FD0520019044
:1009D0000221029101220392FFF736FF019802994A
:1009E000039AFFF7F7FE04B080BD000080B5052034
:1009F00002210022FFF762FF80BD000080B50520C4
:100A000002210122FFF75AFF80BD000081B08DF85E
:100A100003009DF803001F280DDCFFE79DF803107D
:100A2000012000FA01F24EF20011CEF20001086836
:100A3000104308601CE09DF8032000211F2A08468F
:100A4000C8BF01203F2AB8BF012108420FD0FFE7ED
:100A50009DF80300A0F12001012000FA01F24EF2FE
:100A60000411CEF20001086810430860FFE7FFE7B9
:100A700001B0704780B584B005200390FFF758FFA0
:100A8000039800210291FFF741FD0398FFF7FEFD57
:100A9000029A03981146FFF7D7FE0398022101221C
:100AA0000192FFF797FE019A02990398FFF754FD10
:100AB000029A03981146FFF741FE029A03981146E5
:100AC000FFF7AAFD029A03981146FFF7FDFD029970
:100AD0000398FFF7F5FC02990398FFF777FD039859
:100AE00040F60961C0F20001FFF762FE04B080BD6C
:100AF00080B584B005200290FFF71AFF0298042108
:100B00000391FFF703FD0298FFF7C0FD02980399D8
:100B100000220192FFF798FE029802210122009222
:100B2000FFF758FE009A02980399FFF715FD019A06
:100B300002980399FFF702FE019A02980399FFF7C2
:100B40006BFD019A02980399FFF7BEFD0298039985
:100B5000FFF7B6FC02980399FFF738FD04B080BD9B
:100B60004EF21001CEF20001086840F00400086067
:100B7000704700004EF21001CEF20001086840F00C
:100B8000020008607047000080B5FFF7E9FFFFF73B
:100B9000F1FF42F20040C0F2F40000F009F840F624
:100BA000ED30C0F2000000F00DF800F015F880BD47
:100BB00081B0009000984EF21401CEF2000108605E
:100BC00001B0704781B00090009840F26801C2F215
:100BD0000001086001B070474EF21001CEF2000132
:100BE000086840F0010008607047000040F274019E
:100BF000C2F2000108680130086040F27001C2F2E0
:100C0000000101200870704780B540F26800C2F210
:100C100000000068804780BD81B04EF68851CEF25A
:100C20000001086840F4700008604EF27001C4F2E0
:100C30000F0142F61000C0F2807008604EF26002B0
:100C4000C4F20F0243F6D120C0F28E70106042F65B
:100C50004250C0F29E10106042F60000C0F28010B8
:100C6000086000200090FFE70098C0087C2805D8A5
:100C7000FFE7FFE7009801300090F5E74EF26001D2
:100C8000C4F20F0140F64250C0F29E1008604EF2CE
:100C90007001C4F20F0140F60000C0F2801008603D
:100CA00000200090FFE70098C0087C2805D8FFE7E7
:100CB000FFE7009801300090F5E74EF26001C4F2C2
:100CC0000F0140F64250C0F2DE100860FFE74EF21E
:100CD0005000C4F20F00006800F04000402801D02E
:100CE000FFE7F4E74EF26001C4F20F0140F2425018
:100CF000C0F2DE1008604EF27001C4F20F014FF036
:100D0000C070086000200090FFE7009842F20F7169
:100D1000884205D8FFE7FFE7009801300090F4E72C
:100D200001B0704780B582B000200190FFF7B6FB9C
:100D3000FFF748FEFFF728FFFFF79CFEFFF7D8FEFE
:100D40001E20FFF763FE62B600BFFFE740F27000AF
:100D5000C2F200000078012855D1FFE740F270018F
:100D6000C2F200010020087040F20000C2F2000050
:100D7000007801460091012804D0FFE7009802287E
:100D800020D03FE040F27400C2F20000026840F25E
:100D90007900C2F200000178B2FBF1F000FB1120F3
:100DA00078B9FFE740F27401C2F200010020086048
:100DB000FFF71CFE40F20001C2F2000102200870A1
:100DC000FFE71FE040F27400C2F20000026840F248
:100DD0007800C2F200000178B2FBF1F000FB1120B4
:100DE00078B9FFE740F27401C2F200010020086008
:100DF000FFF704FE40F20001C2F20001012008707A
:100E0000FFE7FFE7FFE7A1E780B582B005200021FB
:100E1000FFF7AEFD01280CD1FFE705200021FFF709
:100E20004FFB40F27B01C2F20001087801300870EC
:100E300040E005200421FFF79BFD012839D1FFE7A1
:100E400005200421FFF73CFB40F27A00C2F20000CB
:100E5000007801460191022804D3FFE70198022897
:100E600013D025E040F27B01C2F20001087840F285
:100E70007902C2F2000210700020087040F27A017C
:100E8000C2F200010220087012E040F27B01C2F2BF
:100E90000001087840F27802C2F2000210700020CF
:100EA000087040F27A01C2F2000101200870FFE7E9
:100EB000FFE7FFE702B080BDF1EE100A4FF6FF71C9
:100EC000C0F2C03120EA010040F04070E1EE100AAB
:100ED00070470000F40E0000000000200400000035
:100EE000A8020000F80E00000800002078020000B0
:080EF000C40200000200000032
:040000050000030DE7
:00000001FF
