:020000040000FA
:1000000068020020F1020000F9020000FB0200007B
:10001000FD020000FF0200000103000000000000DC
:1000200000000000000000000000000003030000CA
:10003000050300000000000007030000B1060000F7
:100040000B0300000D0300000F030000110300006C
:10005000130300001503000017030000190300003C
:100060001B0300001D0300001F030000210300000C
:1000700023030000250300002703000029030000DC
:100080002B0300002D0300002F03000031030000AC
:10009000330300003503000037030000390300007C
:1000A0003B0300003D0300003F030000410300004C
:1000B000430300004503000047030000490300001C
:1000C0004B0300004D0300004F03000051030000EC
:1000D00053030000550300005703000059030000BC
:1000E0005B0300005D030000000000005F030000F0
:1000F0006103000063030000650300006703000064
:10010000690300006B0300006D0300006F03000033
:1001100000000000000000007103000073030000F5
:100120007503000077030000790300007B030000E3
:100130007D0300007F0300008103000083030000B3
:1001400000000000000000000000000000000000AF
:100150008503000087030000890300008B03000073
:10016000000000000000000000000000000000008F
:10017000000000000000000000000000000000007F
:10018000000000000000000000000000000000006F
:10019000000000000000000000000000000000005F
:1001A000000000000000000000000000000000004F
:1001B0008D0300008F0300009103000093030000F3
:1001C0009503000097030000990300009B030000C3
:1001D0009D0300009F030000A1030000A303000093
:1001E000A5030000A7030000A90300000000000011
:1001F00000000000AB030000AD030000AF030000EF
:10020000B1030000B3030000000000000000000084
:10021000B5030000B7030000B9030000BB030000F2
:10022000BD030000BF030000C1030000C3030000C2
:10023000C5030000C7030000C9030000CB03000092
:10024000CD030000CF030000D1030000D303000062
:10025000D5030000D7030000D9030000DB03000032
:10026000DD030000DF030000E103000000F002F8FE
:1002700000F02EF80AA090E8000C82448344AAF112
:100280000107DA4501D100F023F8AFF2090EBAE810
:100290000F0013F0010F18BFFB1A43F001031847BA
:1002A0008C0500009C05000000230024002500268A
:1002B000103A28BF78C1FBD8520728BF30C148BFC9
:1002C0000B6070471FB500F0A4FA1FBD10B510BD3C
:1002D00000F09BF81146FFF7F5FF00F077FA00F009
:1002E000B9F803B4FFF7F2FF03BC00F0C1F8000057
:1002F0003F4880473F480047FEE7FEE7FEE7FEE74E
:10030000FEE7FEE7FEE7FEE7FEE7FEE7FEE7FEE7C5
:10031000FEE7FEE7FEE7FEE7FEE7FEE7FEE7FEE7B5
:10032000FEE7FEE7FEE7FEE7FEE7FEE7FEE7FEE7A5
:10033000FEE7FEE7FEE7FEE7FEE7FEE7FEE7FEE795
:10034000FEE7FEE7FEE7FEE7FEE7FEE7FEE7FEE785
:10035000FEE7FEE7FEE7FEE7FEE7FEE7FEE7FEE775
:10036000FEE7FEE7FEE7FEE7FEE7FEE7FEE7FEE765
:10037000FEE7FEE7FEE7FEE7FEE7FEE7FEE7FEE755
:10038000FEE7FEE7FEE7FEE7FEE7FEE7FEE7FEE745
:10039000FEE7FEE7FEE7FEE7FEE7FEE7FEE7FEE735
:1003A000FEE7FEE7FEE7FEE7FEE7FEE7FEE7FEE725
:1003B000FEE7FEE7FEE7FEE7FEE7FEE7FEE7FEE715
:1003C000FEE7FEE7FEE7FEE7FEE7FEE7FEE7FEE705
:1003D000FEE7FEE7FEE7FEE7FEE7FEE7FEE7FEE7F5
:1003E000FEE7000004480549034A054B704700003A
:1003F000C10600006D0200006800002068020020B5
:1004000068000020704770477047754600F02CF870
:10041000AE4605006946534620F00700854618B0F1
:1004200020B5FFF7DFFFBDE820404FF000064FF09A
:1004300000074FF000084FF0000BAC46ACE8C009D5
:10044000ACE8C009ACE8C009ACE8C00921F007017C
:100450008D46704710B50446AFF300802046BDE8D6
:100460001040FFF73EBF000000487047000000202A
:1004700001491820ABBEFEE72600020070470000CD
:100480004EF20861C4F20F01086840F020000860D5
:100490007047000082B08DF807008DF806108DF8C7
:1004A00005209DF807000146009105282AD80099EB
:1004B000DFE801F003040506070823E022E021E05D
:1004C00020E01FE09DF8050001280DD1FFE79DF811
:1004D0000610012000FA01F245F21C51C4F202019B
:1004E0000868104308600CE09DF80610012000FA2F
:1004F00001F245F21C51C4F2020108689043086001
:10050000FFE7FFE702B0704782B08DF807008DF873
:1005100006108DF805209DF807000146009105287A
:100520002AD80099DFE801F003040506070823E054
:1005300022E021E020E01FE09DF8050001280DD118
:10054000FFE79DF80610012000FA01F245F2004194
:10055000C4F202010868104308600CE09DF8061020
:10056000012000FA01F245F20041C4F202010868DC
:1005700090430860FFE7FFE702B0704782B08DF854
:1005800007008DF806108DF805209DF8070001463C
:10059000009105282AD80099DFE801F00304050638
:1005A000070823E022E021E020E01FE09DF805009D
:1005B00001280DD1FFE79DF80610012000FA01F295
:1005C00045F2FC31C4F202010868104308600CE0F7
:1005D0009DF80610012000FA01F245F2FC31C4F248
:1005E0000201086890430860FFE7FFE702B0704728
:1005F00080B584B0FFF744FF0520019002210291ED
:1006000001220392FFF780FF01980299039AFFF7F6
:1006100041FF04B080BD000080B50520022100220A
:10062000FFF7ACFF80BD000080B50520022101224C
:10063000FFF7A4FF80BD00004EF21001CEF20001D2
:10064000086840F004000860704700004EF218008F
:10065000CEF20000006870474EF21001CEF20001A9
:10066000086820F0020008607047000080B5FFF7BE
:10067000E3FFFFF7F1FF43F20050C0F20C0000F07F
:1006800003F800F00BF880BD81B0009000984EF2A6
:100690001401CEF20001086001B070474EF2100163
:1006A000CEF20001086840F00100086070470000C9
:1006B00080B540F26000C2F200000068804780BD53
:1006C00081B04EF68851CEF20001086840F4700007
:1006D00008604EF27001C4F20F0142F61000C0F241
:1006E000807008604EF26002C4F20F0243F6D1201F
:1006F000C0F28E70106042F64250C0F29E10106040
:1007000042F60000C0F28010086000200090FFE771
:100710000098C0087C2805D8FFE7FFE70098013063
:100720000090F5E74EF26001C4F20F0140F642502E
:10073000C0F29E1008604EF27001C4F20F0140F644
:100740000000C0F28010086000200090FFE70098D1
:10075000C0087C2805D8FFE7FFE70098013000902B
:10076000F5E74EF26001C4F20F0140F64250C0F2CC
:10077000DE100860FFE74EF25000C4F20F00006880
:1007800000F04000402801D0FFE7F4E74EF260019E
:10079000C4F20F0140F24250C0F2DE1008604EF287
:1007A0007001C4F20F014FF0C0700860002000908B
:1007B000FFE7009842F20F71884205D8FFE7FFE794
:1007C000009801300090F4E701B0704780B582B026
:1007D000002001908DF80300FFF70AFFFFF746FFA6
:1007E000FFE7FFF733FF012812D1FFE79DF8030071
:1007F000012806D1FFE7FFF717FF00208DF803005F
:1008000005E0FFF709FF01208DF80300FFE7FFE790
:10081000E7E7F1EE100A4FF6FF71C0F2C03120EAAF
:10082000010040F04070E1EE100A70473C08000003
:0C0830000000002068020000A802000088
:04000005000002F104
:00000001FF
